{"abi":[{"type":"function","name":"addPerson","inputs":[{"name":"_name","type":"string","internalType":"string"},{"name":"_favoriteNumber","type":"uint256","internalType":"uint256"}],"outputs":[],"stateMutability":"nonpayable"},{"type":"function","name":"listOfPeople","inputs":[{"name":"","type":"uint256","internalType":"uint256"}],"outputs":[{"name":"favoriteNumber","type":"uint256","internalType":"uint256"},{"name":"name","type":"string","internalType":"string"}],"stateMutability":"view"},{"type":"function","name":"myFavoriteNumber","inputs":[],"outputs":[{"name":"","type":"uint256","internalType":"uint256"}],"stateMutability":"view"},{"type":"function","name":"nameToFavoriteNumber","inputs":[{"name":"","type":"string","internalType":"string"}],"outputs":[{"name":"","type":"uint256","internalType":"uint256"}],"stateMutability":"view"},{"type":"function","name":"retrieve","inputs":[],"outputs":[{"name":"","type":"uint256","internalType":"uint256"}],"stateMutability":"view"},{"type":"function","name":"store","inputs":[{"name":"_favoriteNumber","type":"uint256","internalType":"uint256"}],"outputs":[],"stateMutability":"nonpayable"}],"bytecode":{"object":"0x608060405234801561001057600080fd5b5061096a806100206000396000f3fe608060405234801561001057600080fd5b50600436106100625760003560e01c80632e64cec1146100675780632ebce631146100855780636057361d146100b65780636d83bc57146100d25780636f760f41146100f05780638bab8dd51461010c575b600080fd5b61006f61013c565b60405161007c91906102e1565b60405180910390f35b61009f600480360381019061009a919061033c565b610145565b6040516100ad9291906103f9565b60405180910390f35b6100d060048036038101906100cb919061033c565b610201565b005b6100da61020b565b6040516100e791906102e1565b60405180910390f35b61010a6004803603810190610105919061055e565b610211565b005b610126600480360381019061012191906105ba565b61029a565b60405161013391906102e1565b60405180910390f35b60008054905090565b6001818154811061015557600080fd5b906000526020600020906002020160009150905080600001549080600101805461017e90610632565b80601f01602080910402602001604051908101604052809291908181526020018280546101aa90610632565b80156101f75780601f106101cc576101008083540402835291602001916101f7565b820191906000526020600020905b8154815290600101906020018083116101da57829003601f168201915b5050505050905082565b8060008190555050565b60005481565b60016040518060400160405280838152602001848152509080600181540180825580915050600190039060005260206000209060020201600090919091909150600082015181600001556020820151816001019081610270919061080f565b50505080600283604051610284919061091d565b9081526020016040518091039020819055505050565b6002818051602081018201805184825260208301602085012081835280955050505050506000915090505481565b6000819050919050565b6102db816102c8565b82525050565b60006020820190506102f660008301846102d2565b92915050565b6000604051905090565b600080fd5b600080fd5b610319816102c8565b811461032457600080fd5b50565b60008135905061033681610310565b92915050565b60006020828403121561035257610351610306565b5b600061036084828501610327565b91505092915050565b600081519050919050565b600082825260208201905092915050565b60005b838110156103a3578082015181840152602081019050610388565b60008484015250505050565b6000601f19601f8301169050919050565b60006103cb82610369565b6103d58185610374565b93506103e5818560208601610385565b6103ee816103af565b840191505092915050565b600060408201905061040e60008301856102d2565b818103602083015261042081846103c0565b90509392505050565b600080fd5b600080fd5b7f4e487b7100000000000000000000000000000000000000000000000000000000600052604160045260246000fd5b61046b826103af565b810181811067ffffffffffffffff8211171561048a57610489610433565b5b80604052505050565b600061049d6102fc565b90506104a98282610462565b919050565b600067ffffffffffffffff8211156104c9576104c8610433565b5b6104d2826103af565b9050602081019050919050565b82818337600083830152505050565b60006105016104fc846104ae565b610493565b90508281526020810184848401111561051d5761051c61042e565b5b6105288482856104df565b509392505050565b600082601f83011261054557610544610429565b5b81356105558482602086016104ee565b91505092915050565b6000806040838503121561057557610574610306565b5b600083013567ffffffffffffffff8111156105935761059261030b565b5b61059f85828601610530565b92505060206105b085828601610327565b9150509250929050565b6000602082840312156105d0576105cf610306565b5b600082013567ffffffffffffffff8111156105ee576105ed61030b565b5b6105fa84828501610530565b91505092915050565b7f4e487b7100000000000000000000000000000000000000000000000000000000600052602260045260246000fd5b6000600282049050600182168061064a57607f821691505b60208210810361065d5761065c610603565b5b50919050565b60008190508160005260206000209050919050565b60006020601f8301049050919050565b600082821b905092915050565b6000600883026106c57fffffffffffffffffffffffffffffffffffffffffffffffffffffffffffffffff82610688565b6106cf8683610688565b95508019841693508086168417925050509392505050565b6000819050919050565b600061070c610707610702846102c8565b6106e7565b6102c8565b9050919050565b6000819050919050565b610726836106f1565b61073a61073282610713565b848454610695565b825550505050565b600090565b61074f610742565b61075a81848461071d565b505050565b5b8181101561077e57610773600082610747565b600181019050610760565b5050565b601f8211156107c35761079481610663565b61079d84610678565b810160208510156107ac578190505b6107c06107b885610678565b83018261075f565b50505b505050565b600082821c905092915050565b60006107e6600019846008026107c8565b1980831691505092915050565b60006107ff83836107d5565b9150826002028217905092915050565b61081882610369565b67ffffffffffffffff81111561083157610830610433565b5b61083b8254610632565b610846828285610782565b600060209050601f8311600181146108795760008415610867578287015190505b61087185826107f3565b8655506108d9565b601f19841661088786610663565b60005b828110156108af5784890151825560018201915060208501945060208101905061088a565b868310156108cc57848901516108c8601f8916826107d5565b8355505b6001600288020188555050505b505050505050565b600081905092915050565b60006108f782610369565b61090181856108e1565b9350610911818560208601610385565b80840191505092915050565b600061092982846108ec565b91508190509291505056fea2646970667358221220fcbd267455037dbbcf3664aa436639b9294b895800bc157d17d4b499f5d43d3c64736f6c63430008130033","linkReferences":{}},"methodIdentifiers":{"addPerson(string,uint256)":"6f760f41","listOfPeople(uint256)":"2ebce631","myFavoriteNumber()":"6d83bc57","nameToFavoriteNumber(string)":"8bab8dd5","retrieve()":"2e64cec1","store(uint256)":"6057361d"},"id":0}